:020000040800F2
:100000004046002061020008A9230008911F000853
:10001000A5230008E7030008B92C00080000000031
:10002000000000000000000000000000A101000826
:100030008B06000800000000FD010008AD23000849
:100040007B0200087B0200087B0200087B0200089C
:100050007B0200087B0200087B0200087B0200088C
:100060007B0200087B0200087B0200087B0200087C
:100070007B0200087B0200087B0200087B0200086C
:100080007B0200087B0200087B0200087B0200085C
:100090007B0200087B0200087B0200087B0200084C
:1000A0007B020008AD2400087B0200087B020008E8
:1000B0007B0200087B0200087B0200087B0200082C
:1000C0007B0200087B0200087B0200087B0200081C
:1000D0007B020008512C00087B0200087B0200080C
:1000E0007B0200087B0200087B0200087B020008FC
:1000F0007B0200087B0200087B0200087B020008EC
:100100007B0200087B0200087B0200087B020008DB
:100110007B0200087B0200087B0200087B020008CB
:100120007B0200087B020008610500087B020008D2
:100130007B0200087B0200087B0200087B020008AB
:100140007B0200087B0200087B0200087B0200089B
:100150007B0200087B020008710500087B02000892
:100160007B0200087B0200087B0200087B0200087B
:100170007B0200087B0200087B02000800000000F0
:100180007B0200087B020008DFF810D000F0EEF8D8
:1001900000480047C52D0008AFF30080404600200E
:1001A0002C4B19680868B0E8F04F80F30988BFF35A
:1001B0006F8F4FF0000080F311887047000000003F
:1001C00008480068006880F308884FF0000080F35A
:1001D000148862B661B6BFF34F8FBFF36F8F00DF35
:1001E00000BF00BF08ED00E0DFF80C00016841F43B
:1001F00070010160704700BF88ED00E0EFF30980F7
:10020000BFF36F8F134B1A681EF0100F08BF20ED5D
:10021000108A20E9F04F106009B44FF0500080F3CD
:100220001188BFF34F8FBFF36F8F03F0D9FB4FF0EF
:10023000000080F3118809BC19680868B0E8F04F25
:100240001EF0100F08BFB0EC108A80F30988BFF3CE
:100250006F8F7047E0000020EFF3058070470000CB
:100260000648804706480047FEE7FEE7FEE7FEE750
:10027000FEE7FEE7FEE7FEE7FEE7FEE7992400085B
:10028000890100082DE9F05F0546002092469B4653
:1002900088460646814640241BE02846414647469C
:1002A000224600F053F853465A46C01A914110D3E3
:1002B00011461846224600F03AF82D1A67EB01085D
:1002C0004F4622460120002100F031F817EB0009CB
:1002D0004E41201EA4F10104DFDC484631462A4687
:1002E0004346BDE8F09F40EA01039B0703D009E0C5
:1002F00008C9121F08C0042AFAD203E011F8013B12
:1003000000F8013B521EF9D27047D2B201E000F86A
:10031000012B491EFBD270470022F6E710B51346A9
:100320000A4604461946FFF7F0FF204610BD202A72
:1003300004DB203A00FA02F1002070479140C2F13C
:10034000200320FA03F3194390407047202A04DB6E
:10035000203A21FA02F00021704721FA02F3D0403E
:10036000C2F120029140084319467047064C074DE0
:1003700006E0E06840F0010394E807009847103475
:10038000AC42F6D3FFF704FF604500088045000843
:1003900070B58C1810F8015B15F0070301D110F847
:1003A000013B2A1106D110F8012B03E010F8016B74
:1003B00001F8016B5B1EF9D12B0705D40023521EF7
:1003C0000DD401F8013BFAE710F8013BCB1A921C5F
:1003D00003E013F8015B01F8015B521EF9D5A1425D
:1003E000D8D3002070BD00BFFEE7000070B5ADF5AA
:1003F000806D04460E464FF480620C496846FFF754
:1004000072FF002509E014F8011B81EA2520C0B223
:100410003DF8200080EA052085B2301EA6F10106D5
:10042000F1D128460DF5806D70BD0000403F0008F9
:1004300070B54848C078401E00EB4000464901EBCB
:10044000400040886B2812D101F074FE78B100BFE3
:10045000002001F02FFE4FF4FA7000F065FB012040
:1004600001F028FE4FF4FA7000F05EFB00BF39483F
:10047000C078401E00EB4000374901EB4000408847
:10048000DC285AD101F056FE002856D100BF01F0F9
:1004900021FE4FF4FA7000F047FB012001F01AFE34
:1004A0004FF4FA7000F040FB00BF4FF4FA7000F018
:1004B0003BFB00253CE00026002423E005EB450043
:1004C000254901EB40004088244931F83410884226
:1004D00017D100BF214800EBC400416800208847C5
:1004E0004FF4FA7000F020FB1C4800EBC400416898
:1004F000012088474FF4FA7000F016FB00BF012678
:1005000002E0641C0E2CD9D300BF002005EB45018E
:10051000114A02EB410148804EB900210D48C078D4
:10052000401E00EB400002EB4000418070BD6D1C9E
:100530000848C078401EA842BDDC00210548C078AC
:10054000401E00EB4000044A02EB4000418000BF27
:10055000ECE70000480100207800002004000020A3
:1005600010B5024800F000F910BD0000480400205A
:1005700010B5024800F0F8F810BD0000A8040020F3
:100580000146087810381823B0FBF3F20848805C65
:10059000C865032A05D908686FF30900001D88653E
:1005A00003E008686FF309008865886D70470000F4
:1005B00040450008014600208A6A8B69CBB932B1F8
:1005C000012A0DD0022A03D0032A10D10EE000BF69
:1005D000CB6A03F08073B3F1807F00D1012007E084
:1005E000CB6AB3F1C07F00D1012001E000E000BF81
:1005F00034E08B69B3F5005F1AD132B1012A07D01C
:10060000022A03D0032A11D10AE000BF01200EE024
:10061000CB6A03F08073B3F1807F00D1012006E044
:10062000CB6AB3F1C07F00D1012000E000BF15E02C
:1006300032B1012A05D0022A04D0032A0CD103E0EA
:1006400000BF00BF012008E0CB6A03F08073B3F164
:10065000807F00D1012000E000BF00BF704730B5AF
:100660000468246824F4802405682C6004686360AE
:100670008468402C04D10468A2600468E16003E04F
:100680000468A1600468E26030BD704772B600BFC4
:10069000FEE770B50446A56D00F06CFB064694F8C5
:1006A0003500022808D08020606500BF002084F853
:1006B000340000BF012070BD2068006820F01600E3
:1006C000216808602068406920F080002168486146
:1006D000206C08B9A06C28B12068006820F00800E0
:1006E000216808602068006820F001002168086027
:1006F00010E000F03FFB801B05280BD9202060652F
:10070000032084F8350000BF002084F8340000BFC7
:100710000320D0E72068006800F001000028E8D13D
:1007200094F85C103F208840A860012084F83500D0
:1007300000BF002084F8340000BF00BFBBE70146C3
:1007400091F83500022803D08020486501207047C9
:10075000052081F835000868006820F001000A686B
:1007600010600020F3E70000F8B504460020009078
:100770008C4800684FF41651B0FBF1F7A56D2E6858
:1007800094F85C1008208840304098B120680068D8
:1007900000F0040070B12068006820F004002168B7
:1007A000086094F85C1008208840A860606D40F0F4
:1007B0000100606594F85C1001208840304068B109
:1007C0002068406900F0800040B194F85C1001207E
:1007D0008840A860606D40F00200606594F85C108D
:1007E00004208840304068B12068006800F00200B2
:1007F00040B194F85C1004208840A860606D40F01F
:100800000400606594F85C1010208840304078B394
:100810002068006800F0080050B394F85C101020C5
:100820008840A8602068006800F4802080B12068BB
:10083000006800F4002028B9206CC8B12046216C63
:10084000884715E0A06C98B12046A16C88470FE05E
:100850002068006800F4807028B92068006820F0E3
:10086000080021680860206C10B12046216C884780
:1008700094F85C10202088403040002865D0206823
:10088000006800F0100000285FD094F85C10202071
:100890008840A86094F83500052828D120680068B1
:1008A00020F01600216808602068406920F0800070
:1008B00021684861206C08B9A06C28B120680068E4
:1008C00020F008002168086094F85C103F20884000
:1008D000A860012084F8350000BF002084F83400AF
:1008E00000BF206D10B12046216D8847F8BD2068FB
:1008F000006800F4802080B12068006800F40020C7
:1009000028B9606C10B12046616C88471DE0E06B2F
:10091000D8B12046E16B884717E02068006800F4F2
:10092000807068B92068006820F0100021680860B5
:10093000012084F8350000BF002084F8340000BF97
:10094000E06B10B12046E16B8847606D38B3606D95
:1009500000F00100F0B1052084F83500206800683F
:1009600020F001002168086000BF0098401C009042
:10097000B84200D905E02068006800F001000028B6
:10098000F3D100BF012084F8350000BF002084F8B7
:10099000340000BFE06C10B12046E16C884700BF16
:1009A000A4E70000DC0000202DE9F041044600250A
:1009B00000F0E0F9074614B90120BDE8F081606A53
:1009C00000B100BF022084F8350000BF002084F889
:1009D000340000BF2068006820F001002168086032
:1009E0000AE000F0C7F9C01B052805D92020606582
:1009F000032084F83500E0E72068006800F001007B
:100A00000028EED12068056821480540D4E901019D
:100A10000843E16808432169084361690843A16903
:100A20000843E1690843216A08430543606A0428D2
:100A300003D1D4E90B010843054320680560206811
:100A4000456925F00705606A0543606A04280DD1F1
:100A5000A06A0543E06A48B12046FFF7ABFD28B124
:100A600040206065012084F83500A6E720684561D4
:100A70002046FFF785FD064694F85C103F2088402D
:100A8000B06000206065012084F83500002094E704
:100A90003F8010F02DE9F04704460D4616461F46EC
:100AA0004FF00008D4F8589000BF94F834000128A3
:100AB00002D10220BDE8F087012084F8340000BF95
:100AC00094F83500012825D1022084F83500002053
:100AD00060653B46324629462046FFF7C0FD94F844
:100AE0005C103F208840C9F808002068006840F08A
:100AF000160021680860206C28B12068006840F06A
:100B00000800216808602068006840F00100216842
:100B1000086006E000BF002084F8340000BF4FF0FA
:100B200002084046C6E7000070B5044600F022F90E
:100B300006462546681C10B104480078054400BFED
:100B400000F018F9801BA842FAD370BDD80000202D
:100B5000F8B502460B460025002400200021D6E00F
:100B6000012606FA01F51E6806EA0504AC4274D1B6
:100B70001E7906F00306012E04D01E7906F0030646
:100B8000022E13D190684F000326BE40B0434F00A1
:100B9000DE68BE4030439060506801268E40B0430E
:100BA0001E79C6F300168E40304350601E7906F061
:100BB0000306032E09D0D0684F000326BE40B04381
:100BC0004F009E68BE403043D0601E7906F0030699
:100BD000022E13D1CF0802F1200656F827004E0747
:100BE000F70E0F26BE40B0434F07FF0E1E69BE40F2
:100BF0003043CF0802F1200646F8270010684F0066
:100C00000326BE40B0431E7906F003064F00BE40E7
:100C1000304310605E6806F44036002E76D000BF88
:100C2000002600963C4E366846F480463A4F3E60B9
:100C30003E46366806F48046009600BF00BF374E39
:100C40008F0856F827008E07370F0F26BE40B04397
:100C5000334EB24202D1002624E057E0314EB24278
:100C600001D101261EE0304EB24201D1022619E028
:100C70002E4EB24201D1032614E02D4EB24201D1D4
:100C800004260FE02B4EB24201D105260AE02A4E7F
:100C9000B24201D1062605E0284EB24201D1072614
:100CA00000E008268F073F0FBE4030431B4E8F08E1
:100CB00046F82700224E3068A0435E6806F480168E
:100CC00006B120431E4E3060361D3068A0435E687A
:100CD00006F4001606B12043194E361D3060184E3A
:100CE000361F3068A0435E6806F4003606B1204324
:100CF000134E361F3060361F3068A0435E6806F41E
:100D0000803606B120430E4E083E3060491C102943
:100D1000FFF426AFF8BD0000443802400838014017
:100D2000000002400004024000080240000C0240A3
:100D3000001002400014024000180240001C024053
:100D4000083C0140024613690B400BB1012000E052
:100D50000020704710B5426921EA020302EA01044B
:100D600043EA0443836110BD0AB1816101E00B04D1
:100D7000836170470148006870470000D000002080
:100D8000034800680349097808440149086070472E
:100D9000D0000020D800002010B50D48006840F4B5
:100DA00000700B4908600846006840F480600860E5
:100DB0000846006840F480700860032000F0D6F810
:100DC0000F2000F007F800F055F8002010BD0000DB
:100DD000003C0240F0B587B004460026002700BF63
:100DE000002000901E48006840F001001C49086087
:100DF0000846006800F00100009000BF00BF01A994
:100E000002A800F089F900F0BFF946001548B6FBCA
:100E1000F0F0471E14481549086040F2E7311348C6
:100E2000C1604760002101618160816100F064FC64
:100E3000054695B90D4800F093FC05466DB919209B
:100E400000F042F8102C07D200222146192000F0B1
:100E50004FF80748046000E00125284607B0F0BDC0
:100E60004438024040420F000000014008050020C5
:100E7000D400002008B500BF002000901148006891
:100E800040F480400F4908600846006800F4804044
:100E9000009000BF00BF00BF00200090081F006846
:100EA00040F08050091F08600846006800F080503C
:100EB000009000BF00BF00220F21901E00F018F824
:100EC00008BD0000443802400146084600280DDBFA
:100ED00000BF00BF00F01F0301229A4043099B009E
:100EE00003F1E023C3F8002100BF00BF00BF70473B
:100EF0002DE9F05F80460D461646002701F0DEFE24
:100F0000074639462A46334601F00700C0F1070A72
:100F1000BAF1040F02D94FF0040A01E0C0F1070A48
:100F2000D14600F1040ABAF1070F02D24FF0000ACD
:100F300001E0A0F1030AD4464FF0010A0AFA09FAC7
:100F4000AAF1010A0AEA020A0AFA0CFA4FF0010BA6
:100F50000BFA0CFBABF1010B0BEA030B4AEA0B0497
:100F60002146404601F0B2FEBDE8F09F00BF00F010
:100F70000702064B19684FF6FF031940044B0B4359
:100F800043EA0221014B196000BF70470CED00E0FD
:100F90000000FA0570B504460D460CB9012070BD7D
:100FA0005848006800F00700A84209D255490D7062
:100FB0000846006800F00700A84201D00120EEE7D3
:100FC000207800F0020002281DD1207800F00400F3
:100FD000042805D14C48006840F4E0504A490860B4
:100FE000207800F00800082805D14748006840F440
:100FF0006040454908604448006820F0F000A1685E
:10100000084341490860207800F00100A8B36068F7
:10101000012807D13C4808380068C0F34040B8B9FF
:101020000120BCE76068022802D06068032807D16D
:10103000354808380068C0F3406048B90120AEE781
:10104000314808380068C0F3400008B90120A6E71D
:101050002D48006820F00300616808432A490860B1
:10106000FFF788FE064609E0FFF784FE801B41F289
:101070008831884202D9032091E707E022480068BE
:1010800000F00C006168B0EB810FEDD11D480068E5
:1010900000F00700A84209D91A490D7008460068F7
:1010A00000F00700A84201D0012078E7207800F086
:1010B0000400042807D11448006820F4E050E168D7
:1010C000084311490860207800F00800082808D17A
:1010D0000D48006820F46040216940EAC1000A49D7
:1010E000086000F061F808490968C1F30311074A74
:1010F000515CC8400649086006480068FFF76AFE70
:1011000000204CE7003C02400838024048450008F7
:10111000DC000020D40000200F2202600D4A12687B
:1011200002F0030242600B4A126802F0F002826091
:10113000084A126802F4E052C260064A126802F4D9
:101140006042D2080261044A126802F007020A6093
:101150007047000008380240003C02400148006827
:1011600070470000DC00002000B5FFF7F7FF0449DE
:101170000968C1F38221034A515CC84000BD0000E8
:10118000083802405845000800B5FFF7E7FF04495A
:101190000968C1F34231034A515CC84000BD0000F8
:1011A00008380240584500082DE9F0470024002582
:1011B0000026A1462548006800F00C0020B1042854
:1011C00005D008283AD105E0DFF8849039E0DFF84F
:1011D000849036E01D48001F006800F03F041B4863
:1011E000001F006800F4800078B11A481749091FF1
:1011F0000968C1F38811A0FB017001462246002353
:101200003846FFF73FF805460EE011480F49091F21
:101210000968C1F38811A0FB017001462246002332
:101220003846FFF72FF805460848001F0068C0F34E
:101230000140401C4600B5FBF6F902E0DFF81090D3
:1012400000BF00BF4846BDE8F087000008380240F4
:101250000024F40040787D01F8B504460CB9012063
:10126000F8BD207800F00100002874D0F94800682B
:1012700000F00C0004280DD0F648006800F00C00C7
:10128000082813D1F348001F006800F48000B0F56F
:10129000800F0BD1EF4808380068C0F340400028A9
:1012A00059D06068002856D10120D9E700BF606896
:1012B000B0F5803F08D1E7480838006840F4803036
:1012C000E449083908601EE06068B0F5A02F0DD130
:1012D000E0480838006840F48020DE49083908609A
:1012E0000846006840F4803008600CE0D9480838AF
:1012F000006820F48030D749083908600846006843
:1013000020F48020086000BF606890B1FFF732FDD4
:10131000054606E0FFF72EFD401B642801D9032097
:101320009EE7CC4808380068C0F340400028F1D060
:1013300011E0FFF71FFD054606E0FFF71BFD401B10
:10134000642801D903208BE7C24808380068C0F33D
:1013500040400028F1D1207800F0020002285FD13F
:10136000BC48006800F00C0058B1BA48006800F0B2
:101370000C0008281CD1B748001F006800F480004A
:10138000B0B9B44808380068C0F3400020B1E06844
:10139000012801D0012063E7AE480838006820F03A
:1013A000F800216940EAC100AA490839086037E01D
:1013B000E06800B30120A8490860FFF7DBFC0546A0
:1013C00006E0FFF7D7FC401B022801D9032047E7BE
:1013D000A04808380068C0F340000028F1D09D48BC
:1013E0000838006820F0F800216940EAC1009949F6
:1013F0000839086014E0002097490860FFF7BAFC3C
:10140000054606E0FFF7B6FC401B022801D9032081
:1014100026E7904808380068C0F340000028F1D162
:10142000207800F0080008282CD16069A8B10120BC
:101430008A490860FFF79EFC054606E0FFF79AFC24
:10144000401B022801D903200AE782486C3000685B
:10145000C0F340000028F1D014E000207F4908606C
:10146000FFF788FC054606E0FFF784FC401B0228D6
:1014700001D90320F4E677486C300068C0F34000DF
:101480000028F1D1207800F00400042870D1002752
:1014900070483830006800F0805090B900BF0020DC
:1014A00000906C483830006840F08050694938310D
:1014B00008600846006800F08050009000BF00BF40
:1014C00001276748006800F48070B0B9644800687C
:1014D00040F4807062490860FFF74CFC054606E066
:1014E000FFF748FC401B022801D90320B8E65C48FE
:1014F000006800F480700028F2D000BFA0680128C6
:1015000008D154486830006840F001005149683102
:1015100008601DE0A06805280DD14E4868300068BD
:1015200040F004004B49683108600846006840F00C
:10153000010008600CE047486830006820F00100B6
:101540004449683108600846006820F004000860DB
:1015500000BFA068A8B1FFF70DFC054609E0FFF742
:1015600009FC401B41F28831884202D9032077E60A
:1015700026E0384868300068C0F340000028EED00C
:1015800013E0FFF7F7FB054608E0FFF7F3FB401B0E
:1015900041F28831884201D9032061E62D48683044
:1015A0000068C0F340000028EFD1012F07D129487F
:1015B0003830006820F0805026493831086000BF7C
:1015C000A069002845D02348006800F00C000828D6
:1015D0005DD0A069022845D100201F490866FFF7A9
:1015E000C9FB054606E0FFF7C5FB401B022801D9F1
:1015F000032035E6174808380068C0F3406000282B
:10160000F1D1D4E907010843616A40EA811101225E
:10161000A06AC2EB500041EA00412C20005D41EA83
:1016200000600C49091F086001200B490866FFF79C
:10163000A1FB054606E0FFF79DFB401B022801D9F0
:1016400003200DE6034808380068C0F34060002816
:10165000F1D049E00838024000004742800E47427E
:1016600000700040002021490866FFF783FB054613
:1016700006E0FFF77FFB401B022801D90320EFE5BE
:101680001B480068C0F340600028F2D12CE0A0693C
:10169000012800D1E4E51648001D0668A06901286C
:1016A00020D006F48001E06981421BD106F03F01A1
:1016B000206A814216D147F6C0703040616AB0EBB3
:1016C000811F0FD106F440310122A06AC2EB500005
:1016D000B1EB004F06D106F070612C20005DB1EB3C
:1016E000006F01D00120BBE50020B9E500004742B2
:1016F000003802407047704710B504460CB901200D
:1017000010BD94F83D0028B9002084F83C00204624
:1017100000F025F8022084F83D00211D206800F02B
:10172000CDFE012084F8460000BF84F83E00012170
:101730003F200155402001554120015500BF00BF09
:10174000012084F8420043200155442001554520E2
:10175000015500BF012084F83D000020D0E770470C
:10176000014691F83D00012801D001207047022078
:1017700081F83D000868C06840F001000B68D8603F
:101780001A4B086898421BD00868B0F1804F17D0F8
:10179000174B0868984213D0164B086898420FD030
:1017A000154B086898420BD0144B0868984207D034
:1017B000134B0868984203D0124B086898420CD12A
:1017C0000868806800F00702062A0CD008680068E4
:1017D00040F001000B68186005E00868006840F000
:1017E00001000B6818600020C0E700000000014005
:1017F0000004004000080040000C004000040140CC
:101800000040014000180040704770B50446206851
:10181000C5682068066906F00200022819D105F0A3
:101820000200022815D1401F21680861012020779D
:101830002068806900F0030018B12046FFF7E4FF3C
:1018400005E0204600F097F8204600F095F80020CB
:10185000207706F00400042819D105F004000428BC
:1018600015D1C04321680861022020772068806973
:1018700000F4407018B12046FFF7C6FF05E020468F
:1018800000F079F8204600F077F80020207706F085
:101890000800082819D105F00800082815D1C04310
:1018A00021680861042020772068C06900F00300E7
:1018B00018B12046FFF7A8FF05E0204600F05BF8CE
:1018C000204600F059F80020207706F0100010287C
:1018D00019D105F01000102815D1C0432168086106
:1018E000082020772068C06900F4407018B12046B5
:1018F000FFF78AFF05E0204600F03DF8204600F0A3
:101900003BF80020207706F0010048B105F0010007
:1019100030B16FF0010021680861204600F02EF818
:1019200006F08000802809D105F08000802805D1CC
:10193000C043216808612046FFF7DCFE06F0400046
:10194000402809D105F04000402805D1C043216856
:101950000861204600F01EF806F02000202809D17A
:1019600005F02000202805D1C043216808612046E9
:10197000FFF7C1FE70BD70477047000010B5044608
:1019800003492068884201D1FFF7FAF910BD000031
:10199000000001407047704770B50446002520687C
:1019A0004069C0F3C01594F84100212817D1B5B1A2
:1019B00000BF00BF2168143151E8001F21F08000F2
:1019C0002168143141E80002002AF3D100BFA06B66
:1019D00010B1A06BFEF75DFE204600F0F5FE20681A
:1019E0004069C0F3801594F84200222817D1B5B1A0
:1019F00000BF00BF2168143151E8001F21F04000F2
:101A00002168143141E80002002AF3D100BFE06BE5
:101A100010B1E06BFEF73DFE204600F08FFE002087
:101A200070BD70472DE9F84F0446206805682068AE
:101A3000C668206847694FF00009CA4605F00F09DB
:101A4000B9F1000F0AD105F0200038B106F02000EE
:101A500020B1204600F0CBFEBDE8F88FB9F1000FB1
:101A60007CD007F0010018B906F49070002875D0FA
:101A700005F0010030B106F4807018B1606C40F0E0
:101A80000100606405F0040030B107F0010018B1F6
:101A9000606C40F00200606405F0020030B107F0B5
:101AA000010018B1606C40F00400606405F00800AB
:101AB00048B106F0200010B907F0010018B1606CC1
:101AC00040F008006064606C002846D005F02000FB
:101AD00028B106F0200010B1204600F088FE2068F2
:101AE0004069C0F3801A606C00F0080010B9BAF1C8
:101AF000000F2DD0204600F021FE2068406900F044
:101B00004000402820D100BF00BF2168143151E8B7
:101B1000001F21F040002168143141E80002002A32
:101B2000F3D100BFE06B50B17F48E16B0865E06B1B
:101B3000FEF705FE88B1E06B016D88470DE0204699
:101B4000FFF76FFF09E009E02046FFF76AFF04E0B6
:101B50002046FFF766FF002060647DE7206B0128C8
:101B600078D105F01000002874D006F0100000288D
:101B7000FAD000BF00200090206800680090206824
:101B80004068009000BF00BF2068406900F040003E
:101B9000402870D1E06B006840681FFA80F8B8F107
:101BA000000F58D0A08D404555DDA4F82E80E06B85
:101BB000C069B0F5807F43D000BF00BF21680C3101
:101BC00051E8001F21F4807021680C3141E80002C7
:101BD000002AF3D100BF00BF00BF2168143151E8D3
:101BE000001F21F001002168143141E80002002AA1
:101BF000F3D100BF00BF00BF2168143151E8001FBE
:101C000021F040002168143141E80002002AF3D19C
:101C100000BF202084F842000020206300BF00BFE6
:101C200021680C3151E8001F21F0100021680C31AF
:101C300041E80002002AF3D100BFE06BFEF729FD66
:101C400002206063A08DE28D801A81B22046FFF7EA
:101C5000A2FE0EE052E0A08D40450AD1E06BC069C3
:101C6000B0F5807F05D102206063A18D2046FFF78B
:101C700092FEF1E6FFE7A08DE18D401A1FFA80F891
:101C8000E08DD0B3B8F1000F37D000BF00BF21689E
:101C90000C3151E8001F21F4907021680C3141E8AB
:101CA0000002002AF3D100BF00BF00BF2168143139
:101CB00051E8001F21F001002168143141E80002C1
:101CC000002AF3D100BF202084F8420000202063C6
:101CD00000BF00BF21680C3151E8001F21F0100047
:101CE00021680C3141E80002002AF3D100BF022034
:101CF000606341462046FFF74EFEADE605F08000EA
:101D000030B106F0800018B1204600F071FFA3E664
:101D100005F0400030B106F0400018B1204600F058
:101D200043FD99E600BF97E69D25000810B50446DF
:101D30000CB9012010BDA06900B100E000BF94F80B
:101D4000410028B9002084F84000204600F02AF81D
:101D5000242084F841002068C06820F400502168E5
:101D6000C860204600F0C2FD2068006920F4904061
:101D7000216808612068406920F02A0021684861D4
:101D80002068C06840F400502168C860002060648A
:101D9000202084F8410084F842000020606300BFE6
:101DA000C8E7000010B586B00446142101A8FEF76C
:101DB000B3FA3D492068884274D100BF00200090EA
:101DC0003A48006840F0100038490860084600684A
:101DD00000F01000009000BF00BF00BF0020009086
:101DE00032481438006840F0010030491439086066
:101DF0000846006800F00100009000BF00BF4FF4EB
:101E0000C060019002200290002003900320049003
:101E10000720059001A92648FEF79AFE2548264985
:101E200008604FF000604860002123488160C16075
:101E30004FF480610161002141618161C1610162F2
:101E40004162FEF7B1FD08B1FEF720FC00BF1A4861
:101E5000E063846300BF17487830184908604FF08A
:101E6000006048604021154881600021C1604FF446
:101E700080610161002141618161C1610162416252
:101E8000FEF792FD08B1FEF701FC00BF0B48A0630E
:101E9000846300BF002205212520FFF729F82520B3
:101EA000FFF712F806B010BD0010014044380240A0
:101EB000000002404064024048040020A8040020C2
:101EC00070B504460D46164694F8420020280BD102
:101ED00005B10EB9012070BD0020206332462946AD
:101EE000204600F019FEF6E70220F4E7704770473D
:101EF000F7B50446154694F8410020283ED10198D4
:101F000000B10DB90120FEBD01982062A584E584D1
:101F100000206064212084F841001948A16BC86347
:101F20001848A16B08641848A16BC8640020A16B15
:101F3000086501AE23681A1D31682B46A06BFEF7B9
:101F4000A9FD30B110206064202084F841000120F8
:101F5000D9E76FF040002168086000BF00BF21682A
:101F6000143151E8001F41F080002168143141E82C
:101F70000002002AF3D100BF0020C4E70220C2E71C
:101F8000D72600082F270008AF25000870477047A4
:101F900000BFFEE710B504460CB1012000E00020B0
:101FA00002464FF480610248FEF7DEFE10BD0000DD
:101FB0000004024010B504460CB1012000E00020EE
:101FC000024601210148FEF7CFFE10BD001002407D
:101FD00010B504460CB1012000E0002002460221A9
:101FE0000148FEF7C1FE10BD0010024010B50446C6
:101FF0000CB1012000E00020024604210148FEF758
:10200000B3FE10BD0010024010B504460CB1012013
:1020100000E00020024608210148FEF7A5FE10BDA1
:102020000010024010B504460CB1012000E0002071
:10203000024610210148FEF797FE10BD0010024035
:1020400010B504460CB1012000E00020024620211A
:102050000148FEF789FE10BD0010024010B504468D
:102060000CB1012000E00020024640210148FEF7AB
:102070007BFE10BD0010024010B504460CB10120DB
:1020800000E00020024680210148FEF76DFE10BDF1
:102090000008024010B504460CB1012000E0002009
:1020A00002464FF480710248FEF75EFE10BD00004C
:1020B0000004024010B504460CB1012000E00020ED
:1020C00002464FF480510248FEF74EFE10BD00005C
:1020D0000010024010B504460CB1012000E00020C1
:1020E00002464FF480510248FEF73EFE10BD00004C
:1020F0000010024010B504460CB1012000E00020A1
:1021000002464FF400610248FEF72EFE10BD0000AB
:102110000010024010B504460CB1012000E0002080
:1021200002464FF400710248FEF71EFE10BD00008B
:102130000004024010B501210248FEF703FE0249E7
:10214000087010BD000402400000002008B500BF68
:10215000002000900E48006840F480000C490860A0
:102160000846006800F48000009000BF00BF002215
:1021700005213A20FEF7BCFE3A20FEF7A5FE00221C
:1021800005214620FEF7B4FE4620FEF79DFE08BD61
:10219000303802401CB50548012100238022CDE9DA
:1021A000001003A1054801F015FD1CBDC40000206E
:1021B00073746172745F7461736B00002935000879
:1021C00000B587B0142102A8FEF7A6F800BF0020D2
:1021D00001905A48006840F01000584908600846CD
:1021E000006800F01000019000BF00BF00BF002099
:1021F00001900846006840F08000086008460068CA
:1022000000F08000019000BF00BF00BF00200190DF
:102210000846006840F0010008600846006800F0C9
:102220000100019000BF00BF00BF002001900846E0
:10223000006840F0020008600846006800F00200F4
:10224000019000BF00BF00BF002001900846006859
:1022500040F0040008600846006800F004000190A7
:1022600000BF00BF012241F67F013548FEF77CFD2B
:10227000002208213348FEF777FD01224FF4E06188
:102280003148FEF771FD012280213048FEF76CFDD8
:1022900000224FF480712D48FEF766FD41F67F0065
:1022A00002900120039002200490059002A9244886
:1022B000FEF74EFC082002900120039000200490BD
:1022C000059002A91F48FEF743FC01200290002060
:1022D0000390049002A91C48FEF73AFC4FF460708A
:1022E0000290002003900220049002A91448FEF7F7
:1022F0002FFC4FF4E0600290012003900220049034
:10230000059002A91048FEF723FC802002900120CE
:10231000039002200490059002A90C48FEF718FCD7
:102320004FF48070029001200390002004900590EB
:1023300002A90648FEF70CFC07B000BD3038024089
:102340000010024000000240000402400008024069
:1023500010B51148114908604FF4E1304860002180
:102360000E488160C16001610C21416100218161E1
:10237000C161FFF7DBFC08B1FEF788F90748006888
:10238000C06840F0100005490968C860202204496F
:102390000248FFF795FD10BD001001400004002029
:1023A0004901002000BFFEE700BFFEE710B500BFF7
:1023B000502080F31188BFF34F8FBFF36F8F00BFA2
:1023C00001F098FC18B14FF080500449086000BF3C
:1023D000002080F3118800BF10BD000004ED00E074
:1023E00000B593B0302107A8FDF796FF142102A88D
:1023F000FDF792FF00BF002001902548006840F0E3
:102400008050234908600846006800F08050019021
:1024100000BF00BF00BF002001901E48006840F4CC
:1024200080401C4908600846006800F48040019024
:1024300000BF00BF0220079001200A9010200B90DF
:1024400002200D9000210E9108210F91A8211091DA
:10245000022111910421129107A8FEF7FDFE08B197
:10246000FEF714F90F200290022003900020049040
:102470004FF4A05005904FF480500690052102A81B
:10248000FEF788FD08B1FEF701F913B000BD0000AA
:1024900040380240007000400348006840F470007B
:1024A000014908607047000088ED00E010B502485F
:1024B000FFF7ABF910BD00000805002010B5026859
:1024C0002B4B98420ED0B0F1804F0BD0294B984245
:1024D00008D0294B984205D0284B984202D0284B6F
:1024E000984203D122F070024B681A43204B984265
:1024F00020D0B0F1804F1DD01E4B98421AD01E4BF9
:10250000984217D01D4B984214D01D4B984211D0C1
:102510001C4B98420ED01C4B98420BD01B4B984240
:1025200008D01B4B984205D01A4B984202D01A4B48
:10253000984203D122F44072CB681A4322F0800300
:102540004C6943EA04028B68C3620B688362084BE0
:10255000984202D00A4B984201D10B690363036889
:1025600043F00403036001234361026010BD0000D7
:10257000000001400004004000080040000C004042
:102580000004014000400140004401400048014077
:1025900000180040001C00400020004070B50446B8
:1025A000A56B0020E8852846FFF73BFA70BD70B5A3
:1025B00006460025B46B20684069C0F3C01594F846
:1025C0004100212805D125B10020E084204600F0FB
:1025D000FBF820684069C0F3801594F84200222877
:1025E00005D125B10020E085204600F0A7F8606CF9
:1025F00040F0100060642046FFF713FA70BD70B51C
:102600000546AC6B2868006800F48070002842D151
:10261000E08500BF00BF21680C3151E8001F21F4A4
:10262000807021680C3141E80002002AF3D100BF1C
:1026300000BF00BF2168143151E8001F21F00100E4
:102640002168143141E80002002AF3D100BF00BF25
:1026500000BF2168143151E8001F21F040002168BB
:10266000143141E80002002AF3D100BF202084F891
:102670004200206B01280ED100BF00BF21680C3141
:1026800051E8001F21F0100021680C3141E80002E0
:10269000002AF3D100BF00206063206B012804D121
:1026A000A18D2046FFF777F902E02046FFF71EFCD8
:1026B00070BD70B50546AC6B01206063206B0128CE
:1026C00005D1A08D41082046FFF765F902E02046BC
:1026D000FFF70DFC70BD70B50546AC6B286800684F
:1026E00000F48070F8B90020E08400BF00BF2168CA
:1026F000143151E8001F21F080002168143141E8B5
:102700000002002AF3D100BF00BF00BF21680C31D6
:1027100051E8001F41F0400021680C3141E80002FF
:10272000002AF3D102E02046FFF730FC70BD70B5FF
:102730000446A56B2846FFF72AFC70BD00BF00BF0A
:1027400002680C3252E8002F22F4907102680C32B9
:1027500042E80013002BF3D100BF00BF00BF0268A6
:10276000143252E8002F22F001010268143242E8CC
:102770000013002BF3D100BF016B01290ED100BF64
:1027800000BF02680C3252E8002F22F010010268EC
:102790000C3242E80013002BF3D100BF202180F857
:1027A000421000210163704710B504462068C068DC
:1027B00020F040002168C860202084F841002046B5
:1027C000FFF7E4FB002010BD00BF00BF02680C3221
:1027D00052E8002F22F0C00102680C3242E80013D8
:1027E000002BF3D100BF202180F841107047F8B5CD
:1027F00004460025002694F84200222873D1A068E0
:10280000B0F5805F0BD1206948B9A66A206840689E
:10281000C0F308003080A06A801CA06214E0A56AA2
:10282000A068B0F5805F03D0A06828B9206918B906
:1028300020684068287004E02068406800F07F004D
:102840002870A06A401CA062E08D401E80B2E08526
:10285000002846D12068C06820F020002168C860A8
:102860002068C06820F480702168C86020684069D2
:1028700020F0010021684861202084F842000020F7
:102880006063206B012826D10020206300BF00BFB9
:1028900021680C3151E8001F21F0100021680C3133
:1028A00041E80002002AF3D100BF2068006800F070
:1028B000100010280AD100BF002000902068006896
:1028C000009020684068009000BF00BFA18D2046A6
:1028D000FFF761F802E02046FFF708FB0020F8BD93
:1028E00001E00020FBE70220F9E700002DE9F84FA6
:1028F00004462068006920F44050E16808432168DC
:1029000008612169A068084361690843E1690843D7
:1029100000902068C06849F20C6188430099084320
:102920002168C8602068406920F44070A1690843AC
:102930002168486176492068884203D0754920683B
:10294000884203D1FEF720FC814602E0FEF70CFC32
:102950008146E069B0F5004F6CD102206168A0FBB0
:10296000015003461920A9FB007001462A4638464B
:10297000FDF788FC6421B0FBF1F04FEA001A022059
:102980006168A0FB01510B461920A9FB00712A4682
:102990003846FDF777FC834602206168A0FB0150B2
:1029A00003461920A9FB00712A463846FDF76AFC48
:1029B0006421B0FBF1F000EBC00101EB0010ABEBC8
:1029C0008000322101EBC0006421B0FBF1F000F087
:1029D000F8000AEB400A02206168A0FB01500346A0
:1029E0001920A9FB007001462A463846FDF74AFC2B
:1029F000834602206168A0FB015003461920A9FB11
:102A000000712A463846FDF73DFC6421B0FBF1F029
:102A100000EBC00101EB0010ABEB8000322101EBB9
:102A2000C0006421B0FBF1F000F0070050442168C1
:102A300088606AE004206168A0FB01500346192009
:102A4000A9FB007001462A463846FDF71BFC82466A
:102A500004206168A0FB015003461920A9FB007007
:102A600001462A463846FDF70DFC6421B0FBF1F023
:102A700000EBC00101EB0010AAEB8000322101EB5A
:102A800000106421B0FBF1F000F0F00A042061684E
:102A9000A0FB017003461920A9FB00513A462846C5
:102AA000FDF7F0FB6421B0FBF1F00AEB001A042003
:102AB0006168A0FB01510B461920A9FB00712A4651
:102AC0003846FDF7DFFB834604206168A0FB015018
:102AD00003461920A9FB007001462A463846FDF737
:102AE000D1FB6421B0FBF1F000EBC00101EB001061
:102AF000ABEB8000322101EB00106421B0FBF1F060
:102B000000F00F00504421688860BDE8F88F000095
:102B1000001001400014014077B581B0044615460D
:102B20000298A062A58500206064222084F84200FB
:102B30002C48E16BC8632C48E16B08642B48E16BBF
:102B4000C8640020E16B086502AE32682368191D75
:102B50002B46E06BFDF79EFF38B11020606420200B
:102B600084F84200012004B070BD00BF0020009036
:102B700020680068009020684068009000BF00BF97
:102B8000206970B100BF00BF21680C3151E8001FFF
:102B900041F4807021680C3141E80002002AF3D131
:102BA00000BF00BF00BF2168143151E8001F41F091
:102BB00001002168143141E80002002AF3D100BF6E
:102BC00000BF00BF2168143151E8001F41F04000F0
:102BD0002168143141E80002002AF3D100BF00202F
:102BE000C1E70000FF250008B3260008AF25000854
:102BF000014691F84100212828D18868B0F5805F0E
:102C00000BD1086948B90A6A1088C0F308000B683C
:102C10005860086A801C086205E00B6A581C08624C
:102C200018780B685860C88C401E80B2C88458B9A8
:102C30000868C06820F080000B68D8600868C06829
:102C400040F040000B68D860002070470220FCE78D
:102C500038B51748FEF7E6FE15480068006800F032
:102C60001000102822D100BF0020009010480068FA
:102C7000006800900E4800684068009000BF00BFE8
:102C80000B48FEF789FE0A48C06B00684068C0F137
:102C9000200084B2074981F82140012081F82200F8
:102CA0002022491C0248FFF70BF900BF38BD000085
:102CB000000400204801002000BFFEE70248006831
:102CC000C0F30220704700000CED00E010B50028B2
:102CD00004DB0A07130E054A135406E00A07140E14
:102CE000034A00F00F031B1FD45410BD00E400E0A2
:102CF00018ED00E002E008C8121F08C1002AFAD14E
:102D000070477047002001E001C1121F002AFBD16B
:102D10007047000070B50446002514B10120274912
:102D200008702648007888B380212548FEF70AF805
:102D300001280DD04FF480712148FEF703F80128D7
:102D400006D04FF400711E48FDF7FCFF01281ED18C
:102D50000A20FDF7E9FE0020184908708021184874
:102D6000FDF7F0FF012800D101254FF480711448D0
:102D7000FDF7E8FF012800D102254FF4007110484B
:102D8000FDF7E0FF012816D1032514E0FFE78021BD
:102D90000B48FDF7D7FF70B94FF480710848FDF775
:102DA000D1FF40B94FF400710548FDF7CBFF10B9D2
:102DB000012002490870284670BD00007400002000
:102DC00000100240FDF7E8FFFFF70AFBFFF7F8F9F4
:102DD000FFF7BCF9FFF7BCFAFFF7DCF900F0A2F847
:102DE00000BFFEE72DE9F0411B4840781B49087001
:102DF0001948807848701848C078887003211748AF
:102E0000FDF7F4FA0546280A1449C8700D711248F6
:102E1000C078401D00F0FF080F48401C10F8080063
:102E2000487100260C48C77800240CE0E01C0A49D1
:102E3000491C085C311901EB4101094A02EB4101CF
:102E40004880601C84B2BC42F0DB0621034800F0DD
:102E500009F8BDE8F0810000480100208B01002046
:102E60007800002070B504460D46012211020A4880
:102E7000FDF77AFF0120FDF757FE2A462146074855
:102E8000FFF736F80120FDF74FFE00224FF4807166
:102E90000148FDF769FF70BD0008024000040020F2
:102EA0002DE9F0411D4890F8220008B9BDE8F081F5
:102EB0001A4890F82200012828D1184890F82100DB
:102EC000C11E1648401CFDF791FA0446134890F8BD
:102ED0002100801E1149491C0A5C481E90F82100FF
:102EE000C01E085C42EA0025481EC078401DC7B2DB
:102EF0000846C65DAC4209D1EE2E07D1401E80784F
:102F000007490978884201D1FFF76CFF0020034987
:102F100081F8210081F8220000BFC7E748010020A6
:102F20007600002010B500F0FBFC002010BD000072
:102F30002DE9F04105460E461C4807681C4800680C
:102F4000001D00F041FB50B91948006890F82C10A2
:102F50000120884017490968814316480160681CB0
:102F600038B936B112480168091D134800F076FBE4
:102F70001AE07C190E4800684460BC4207D20C4835
:102F80000168091D0D48006800F04EFB0CE0084880
:102F90000168091D0A48006800F046FB09480068FE
:102FA000844201D207480460BDE8F081F4000020AB
:102FB000E0000020F80000202C060020E80000209F
:102FC000E40000201001002010B5044600F052FB80
:102FD00023480068401C224908602248006840B924
:102FE000204804600846006801280DD100F03EF931
:102FF0000AE01D48006838B91A480068C06AE16AEA
:10300000884201D81748046018480068401C1749D6
:10301000086094F82C10012088401549096808437D
:1030200013490860E16A01EB8101124A02EB810059
:10303000211D00F013FB00F047FB0B48006868B14E
:1030400008480068C06AE16A884207D24FF08050A1
:1030500009490860BFF34F8FBFF36F8F10BD0000A9
:10306000F0000020E0000020FC0000200C01002007
:10307000F80000205005002004ED00E010B516E037
:1030800000F0F8FA0C48C068C468201D00F09CFAF3
:103090000A480068401E0949086009480068401E47
:1030A0000749086000F010FB204600F00BF80448C8
:1030B00000680028E4D110BD18060020F0000020B0
:1030C000EC00002010B5044694F8510030B9206B94
:1030D00000F018FB204600F015FB1AE094F85100B0
:1030E000012803D1204600F00DFB12E094F85100B6
:1030F000022801D1012000E0002050B900BF50207B
:1031000080F31188BFF34F8FBFF36F8F00BF00BFF5
:10311000FEE710BD30B54FF47053174800F00704B8
:103120002CB1C01D20F00700134C041B1B1B0246D2
:10313000124C22600024114D6C60D018083820F029
:1031400007000F4C206000240D4D2D686C600C4D65
:103150002D682C601146441A4C60094C24680C60A0
:10316000084D4C682C60084D4C682C604FF00044B2
:10317000064D2C6030BD0000400600201C010020E0
:10318000240100202C01002028010020380100200B
:1031900000BFFFF773FF064800680128F9D94FF018
:1031A000805004490860BFF34F8FBFF36F8FF0E783
:1031B0005005002004ED00E02DE9FF5F81460E463A
:1031C0009246DDE90E7B109CAAF10100216B01EB18
:1031D000800828F0070808F0070008B9012000E07F
:1031E000002050B900BF502080F31188BFF34F8FEB
:1031F000BFF36F8F00BF00BFFEE786B1002507E079
:10320000715D04F134004155705D00B902E06D1C40
:10321000102DF5D300BF00214320015502E000200E
:1032200084F83400072F00D30627E7626764002084
:10323000A064201D00F0F5F904F1180000F0F1F988
:103240002461C7F10700A06164620020E06484F893
:10325000500049464046039A00F050F92060BBF107
:10326000000F01D0CBF80040BDE8FF9F10B500244F
:1032700007E004EB84010F4A02EB810000F0C4F97F
:10328000641C072CF5D30C4800F0BEF90B4800F085
:10329000BBF90B4800F0B8F90A4800F0B5F90A4844
:1032A00000F0B2F904480949086004480849086078
:1032B00010BD000050050020DC050020F0050020B6
:1032C00004060020180600202C060020E400002040
:1032D000E800002010B50146164800E000680368C9
:1032E0008B42FBD30246436813448B4204D14368AC
:1032F0004C682344436001460A464B681344046803
:10330000A34211D10C4C03682468A34208D04B6837
:103310000468646823444B6003681B680B6005E025
:10332000054B1B680B6001E003680B60884200D00E
:10333000016010BD1C010020240100200A49096819
:10334000096809B9012100E0002121B14FF0FF31E6
:10335000064A116006E004490968C968C868034A5A
:103360004168116070470000E40000201001002057
:103370000E480068401C08B9012000E0002050B948
:1033800000BF502080F31188BFF34F8FBFF36F8FC2
:1033900000BF00BFFEE700BF502080F31188BFF3DD
:1033A0004F8FBFF36F8F00BF00BFFEE73C010020CF
:1033B0002DE9F04104464FF0000800F009FB4948B0
:1033C000006808B9FFF7A6FE4748006820400028BB
:1033D00070D1D4B1083404F00700B0B104F0070094
:1033E000C0F10800044404F0070008B9012000E01F
:1033F000002050B900BF502080F31188BFF34F8FD9
:10340000BFF36F8F00BF00BFFEE7002C52D03748DC
:10341000006884424ED8364E3046056801E02E469C
:103420002D686868A04202D228680028F7D12D488C
:10343000006885423ED0306800F108082868306096
:103440006868001B102819D92F1907F0070008B960
:10345000012000E0002050B900BF502080F3118807
:10346000BFF34F8FBFF36F8F00BF00BFFEE76868E9
:10347000001B78606C603846FFF72CFF1B496868BA
:103480000968081A19490860084600681949096856
:10349000884203D2154800681649086012496868D6
:1034A0000968084368600020286013480068401CD1
:1034B0001149086000F0C2FC08F0070008B90120BB
:1034C00000E0002050B900BF502080F31188BFF306
:1034D0004F8FBFF36F8F00BF00BFFEE74046BDE8D0
:1034E000F081000024010020380100202801002084
:1034F0001C0100202C01002030010020001F4FF093
:1035000080730360001F21F001030360001F054B5F
:10351000036014380260001F6FF00203036020385C
:1035200070470000713300081CB5044600F0A2F893
:103530000D48022100238022CDE900100BA10D4887
:1035400000F048FB0C48032100238022CDE9001045
:103550000AA10C4800F03EFB0B48006800F066F939
:1035600000F0B2F81CBD0000C80000207461736B4D
:10357000310000008D350008CC0000207461736BB1
:1035800032000000B1350008C40000200CE0FFF755
:1035900087FCFCF74DFF0120FFF7BCFB03490870D7
:1035A0004FF47A7000F014F9F1E70000C000002039
:1035B00007E008210348FDF7CDFB4FF47A7000F0D7
:1035C00007F9F6E70000024001460A69D1E9013037
:1035D0009860D1E9010358605068884201D1886839
:1035E0005060002008611068401E1060106870472D
:1035F000034B0360034B0B60802313607047000094
:10360000AC0100200002002000F1080141604FF0F1
:10361000FF31816000F10801C1600161002101609A
:10362000704700210161704710B502460B685C1CB1
:103630000CB9106907E002F1080000E04068446836
:1036400024689C42FAD944684C604C68A160886048
:1036500041600A611468641C146010BD42684A60CD
:1036600093688B60936859609160086103685B1C84
:103670000360704700BF502080F31188BFF34F8F65
:10368000BFF36F8F00BF0E480068401C0C490860F4
:1036900008460068012812D10A480068C0B208B97B
:1036A000012000E0002050B900BF502080F31188B5
:1036B000BFF34F8FBFF36F8F00BF00BFFEE77047B0
:1036C0003C01002004ED00E00D48006850B900BF47
:1036D000502080F31188BFF34F8FBFF36F8F00BF6F
:1036E00000BFFEE706480068401E0549086008461E
:1036F000006820B9002080F3118800BF00BF704728
:103700003C01002070B506463546002E44D0083DE9
:103710002C46224960680968084008B1012000E091
:10372000002050B900BF502080F31188BFF34F8FA5
:10373000BFF36F8F00BF00BFFEE7206808B901200C
:1037400000E0002050B900BF502080F31188BFF383
:103750004F8FBFF36F8F00BF00BFFEE70F49606858
:1037600009680840C0B12068B0B90C4960680968B0
:103770008843606000F02CF90949606809680844D2
:10378000074908602046FFF7A5FD06480068401C71
:103790000449086000F052FB70BD000038010020B1
:1037A000280100203401002000204FF0E0210861B2
:1037B0008861064800684FF47A71B0FBF1F0401E52
:1037C0004FF0E0214861072008617047DC000020CD
:1037D00070B504460025D4B11248006808B901202C
:1037E00000E0002050B900BF502080F31188BFF3E3
:1037F0004F8FBFF36F8F00BF00BFFEE700F0E8F808
:1038000000212046FFF794FB00F018FB05463DB968
:103810004FF0805004490860BFF34F8FBFF36F8FA4
:1038200070BD00001801002004ED00E070B50546F1
:10383000FFF720FF15B93048006800E0284604462D
:10384000201DFFF7C1FE78B9E06A00EB80002B492C
:1038500051F8200040B994F82C10012088402849E4
:103860000968814326480160A06A18B104F1180074
:10387000FFF7AAFE23480068401C224908601E4842
:103880000068844209D1211D1F48FFF7E7FE1F4849
:103890000068401C1D49086009E01D480068401E82
:1038A0001B4908602046FFF70DFCFFF747FDFFF7B7
:1038B0000BFF18480068E8B10F480068844219D12E
:1038C0001548006808B9012000E0002050B900BF89
:1038D000502080F31188BFF34F8FBFF36F8F00BF6D
:1038E00000BFFEE74FF080500C490860BFF34F8FD8
:1038F000BFF36F8F70BD0000E00000205005002076
:10390000F80000200C01002018060020EC00002028
:10391000F0000020FC0000201801002004ED00E071
:1039200010B586B000200590049003AA04A905A84C
:10393000FFF75EFE0022DDE904101346CDE9002109
:1039400002901CA11D48039A00F076F91C490860FA
:103950000846006808B1012400E00024012C15D1BC
:1039600000BF502080F31188BFF34F8FBFF36F8FDC
:1039700000BF4FF0FF301349086001201249086072
:1039800000201249086000F071F810E0601C08B1D6
:10399000012000E0002050B900BF502080F31188C2
:1039A000BFF34F8FBFF36F8F00BF00BFFEE706B0BE
:1039B00010BD000049444C45000000009131000852
:1039C0001401002010010020FC000020F400002061
:1039D00002480068401C0149086070471801002037
:1039E0001D48006818B101201C49086032E0002021
:1039F0001A4908601A480068B0FA80F0C0F11F0147
:103A000001EB8100174A52F8200008B1012000E0C4
:103A1000002050B900BF502080F31188BFF34F8FB2
:103A2000BFF36F8F00BF00BFFEE701EB81020D4BBC
:103A300003EB820042685268426000F1080243686A
:103A4000934202D14268526842604268D268064B93
:103A50001A6000BF70470000180100200401002018
:103A6000F800002050050020E00000201CB552485E
:103A700000685249884201D0012000E0002050B97E
:103A800000BF502080F31188BFF34F8FBFF36F8FBB
:103A900000BF00BFFEE7484800684849491E884209
:103AA00001D0012000E0002050B900BF502080F379
:103AB0001188BFF34F8FBFF36F8F00BF00BFFEE7CA
:103AC0003F49084600780190FF200A4610700846DA
:103AD000007800909DF8000000F0F0009DF80020B4
:103AE000904201D1012000E0002050B900BF5020D9
:103AF00080F31188BFF34F8FBFF36F8F00BF00BFFC
:103B0000FEE79DF8000000F050002E4A10700720DC
:103B10002D4A106009E02C480068401E2A4A1060B7
:103B20009DF800004006000E00909DF8000000F097
:103B300080008028EFD024480068C0F107000428E6
:103B400001D1012000E0002050B900BF502080F3D7
:103B50001188BFF34F8FBFF36F8F00BF00BFFEE729
:103B6000194800680002184A10601046008800F4E6
:103B7000E0601060124A019810700F482030006811
:103B800040F470000C49203108600846006840F09D
:103B900070400860FFF708FE00200C490860FCF741
:103BA00023FB0B48006840F0404009490860FCF7DF
:103BB00007FB00201CBD000000ED00E071C20F41BA
:103BC00000E400E040010020440100203C0100200E
:103BD00034EF00E02DE9FF4F85B080468946174657
:103BE000DDE912ABB800FFF7E3FB064656B15420FF
:103BF000FFF7DEFB04460CB1266304E03046FFF716
:103C000081FD00E000248CB1002084F85100CDE952
:103C100000ABCDE902403A4649464046089BFFF7D3
:103C2000CBFA2046FFF7D0F9012501E04FF0FF3530
:103C3000284609B0BDE8F08F2DE9F04F85B0074662
:103C4000884691469A46DDE90EB6109C0EB10120D9
:103C500000E0002050B900BF502080F31188BFF36E
:103C60004F8FBFF36F8F00BF00BFFEE70CB1012085
:103C700000E0002050B900BF502080F31188BFF34E
:103C80004F8FBFF36F8F00BF00BFFEE7542003903C
:103C90000398542801D1012000E0002050B900BF52
:103CA000502080F31188BFF34F8FBFF36F8F00BF99
:103CB00000BFFEE700BFB4B1AEB125462C462E636F
:103CC000022085F85100002004A953464A46CDE958
:103CD00000B1CDE9025041463846FFF76DFA28465B
:103CE000FFF772F901E000200490049805B0BDE8E8
:103CF000F08F00002DE9F0414FF0000844480068C3
:103D000000287CD143480068451C4248056015BB2B
:103D100041480068006808B9012000E0002050B95F
:103D200000BF502080F31188BFF34F8FBFF36F8F18
:103D300000BF00BFFEE738480768384800683649CA
:103D400008603648076036480068401C34490860FF
:103D5000FFF7F4FA00BF3348006885423CD300BF48
:103D60002D480068006808B9012000E0002020B15B
:103D70004FF0FF302B4908602DE027480068C068ED
:103D8000C4686668B54202D22648066023E0201D5A
:103D9000FFF71AFCA06A18B104F11800FFF714FC31
:103DA00094F82C10012088401F49096808431E49D7
:103DB0000860E16A01EB81011C4A02EB8100211DD0
:103DC000FFF74CFC1A49E06A0968C96A8842C7D300
:103DD0004FF00108C4E700BF15480068C06A00EB57
:103DE0008000124951F82000012801D94FF0010844
:103DF0001048006808B14FF0010805E0FFE70E48E1
:103E00000068401C0C4908604046BDE8F081000095
:103E100018010020F4000020E4000020E800002049
:103E20000801002010010020F800002050050020AB
:103E3000E0000020040100200001002070B50024F3
:103E400000263648006850B900BF502080F3118822
:103E5000BFF34F8FBFF36F8F00BF00BFFEE7FFF7C9
:103E600009FC2E480068401E2C490860084600687E
:103E700000284FD12A48006800284BD024E0294868
:103E8000C068C46804F11800FFF79EFB201DFFF70F
:103E90009BFB94F82C1001208840234909680843B3
:103EA00021490860E16A01EB8101204A02EB8100AF
:103EB000211DFFF7D3FB1E49E06A0968C96A8842E1
:103EC00002D301201B4908601648006808B9012088
:103ED00000E000200028D2D00CB1FFF72FFA1648DE
:103EE000056865B100BFFFF705FF10B1012011495A
:103EF00008606D1E002DF6D100200F4908600D48A6
:103F0000006838B1012630070C490860BFF34F8FB5
:103F1000BFF36F8FFFF7D8FB304670BD180100204C
:103F2000F000002004060020F800002050050020CA
:103F3000E0000020040100200001002004ED00E06A
:103F4000000000002110000042200000633000004B
:103F500084400000A5500000C6600000E77000002B
:103F600008810000299100004AA100006BB1000007
:103F70008CC10000ADD10000CEE10000EFF10000E7
:103F800031120000100200007332000052220000C3
:103F9000B552000094420000F7720000D6620000A3
:103FA00039930000188300007BB300005AA300007F
:103FB000BDD300009CC30000FFF30000DEE300005F
:103FC00062240000433400002004000001140000BB
:103FD000E6640000C7740000A4440000855400009B
:103FE0006AA500004BB50000288500000995000077
:103FF000EEE50000CFF50000ACC500008DD5000057
:104000005336000072260000111600003006000032
:10401000D7760000F666000095560000B446000012
:104020005BB700007AA700001997000038870000EE
:10403000DFF70000FEE700009DD70000BCC70000CE
:10404000C4480000E558000086680000A77800001A
:10405000400800006118000002280000233800001A
:10406000CCC90000EDD900008EE90000AFF90000D6
:1040700048890000699900000AA900002BB90000D6
:10408000F55A0000D44A0000B77A0000966A000092
:10409000711A0000500A0000333A0000122A000092
:1040A000FDDB0000DCCB0000BFFB00009EEB00004E
:1040B000799B0000588B00003BBB00001AAB00004E
:1040C000A66C0000877C0000E44C0000C55C00008A
:1040D000222C0000033C0000600C0000411C00008A
:1040E000AEED00008FFD0000ECCD0000CDDD000046
:1040F0002AAD00000BBD0000688D0000499D000046
:10410000977E0000B66E0000D55E0000F44E000001
:10411000133E0000322E0000511E0000700E000001
:104120009FFF0000BEEF0000DDDF0000FCCF0000BD
:104130001BBF00003AAF0000599F0000788F0000BD
:1041400088910000A9810000CAB10000EBA1000025
:104150000CD100002DC100004EF100006FE1000005
:1041600080100000A1000000C2300000E320000029
:104170000450000025400000467000006760000009
:10418000B983000098930000FBA30000DAB300009D
:104190003DC300001CD300007FE300005EF300007D
:1041A000B102000090120000F3220000D2320000A1
:1041B0003542000014520000776200005672000081
:1041C000EAB50000CBA50000A89500008985000095
:1041D0006EF500004FE500002CD500000DC5000075
:1041E000E2340000C3240000A01400008104000099
:1041F0006674000047640000245400000544000079
:10420000DBA70000FAB7000099870000B89700000C
:104210005FE700007EF700001DC700003CD70000EC
:10422000D3260000F236000091060000B016000010
:1042300057660000767600001546000034560000F0
:104240004CD900006DC900000EF900002FE90000F4
:10425000C8990000E98900008AB90000ABA90000F4
:1042600044580000654800000678000027680000F8
:10427000C0180000E108000082380000A3280000F8
:104280007DCB00005CDB00003FEB00001EFB00006C
:10429000F98B0000D89B0000BBAB00009ABB00006C
:1042A000754A0000545A0000376A0000167A000070
:1042B000F10A0000D01A0000B32A0000923A000070
:1042C0002EFD00000FED00006CDD00004DCD000064
:1042D000AABD00008BAD0000E89D0000C98D000064
:1042E000267C0000076C0000645C0000454C000068
:1042F000A23C0000832C0000E01C0000C10C000068
:104300001FEF00003EFF00005DCF00007CDF0000DB
:104310009BAF0000BABF0000D98F0000F89F0000DB
:10432000176E0000367E0000554E0000745E0000DF
:10433000932E0000B23E0000D10E0000F01E0000DF
:1043400000C1814001C0804101C0804100C1814065
:1043500001C0804100C1814000C1814001C0804155
:1043600001C0804100C1814000C1814001C0804145
:1043700000C1814001C0804101C0804100C1814035
:1043800001C0804100C1814000C1814001C0804125
:1043900000C1814001C0804101C0804100C1814015
:1043A00000C1814001C0804101C0804100C1814005
:1043B00001C0804100C1814000C1814001C08041F5
:1043C00001C0804100C1814000C1814001C08041E5
:1043D00000C1814001C0804101C0804100C18140D5
:1043E00000C1814001C0804101C0804100C18140C5
:1043F00001C0804100C1814000C1814001C08041B5
:1044000000C1814001C0804101C0804100C18140A4
:1044100001C0804100C1814000C1814001C0804194
:1044200001C0804100C1814000C1814001C0804184
:1044300000C1814001C0804101C0804100C1814074
:1044400000C0C101C30302C2C60607C705C5C40434
:10445000CC0C0DCD0FCFCE0E0ACACB0BC90908C8A4
:10446000D81819D91BDBDA1A1EDEDF1FDD1D1CDC94
:1044700014D4D515D71716D6D21213D311D1D01004
:10448000F03031F133F3F23236F6F737F53534F4F4
:104490003CFCFD3DFF3F3EFEFA3A3BFB39F9F83864
:1044A00028E8E929EB2B2AEAEE2E2FEF2DEDEC2C54
:1044B000E42425E527E7E62622E2E323E12120E0C4
:1044C000A06061A163A3A26266A6A767A56564A4B4
:1044D0006CACAD6DAF6F6EAEAA6A6BAB69A9A86824
:1044E00078B8B979BB7B7ABABE7E7FBF7DBDBC7C14
:1044F000B47475B577B7B67672B2B373B17170B084
:104500005090915193535292965657975595945473
:104510009C5C5D9D5F9F9E5E5A9A9B5B99595898E3
:10452000884849894B8B8A4A4E8E8F4F8D4D4C8CD3
:104530004484854587474686824243834181804043
:104540000006101600061016000000000000000013
:104550000102030406070809000000000102030429
:10456000804500080000002048010000900300087A
:10457000F045000848010020F8440000042D000820
:1045800041326013951F3308611AB50832621AD19F
:104590000832631AED0832641309203308651A25BE
:1045A0000832661A410832671A5D0832681A7908BB
:1045B0002A69481908326A13152133086E1AF51052
:1045C00032DC1AD5082A6B601908120172405201B8
:1045D000520252035204520552065207520852091F
:1045E000520A02190B6A105A035D24F41AAA0181B7
:040000050800018965
:00000001FF
