:020000040800F2
:1000000040470020290300085B1500085312000830
:10001000591500081F050008091700080000000016
:10002000000000000000000000000000690200085D
:100030003305000800000000C50200085D15000837
:100040004303000843030008430300084303000878
:100050004303000843030008430300084303000868
:100060004303000843030008430300084303000858
:100070004303000843030008430300084303000848
:100080004303000843030008430300084303000838
:100090004303000843030008430300084303000828
:1000A000430300082D16000843030008430300081B
:1000B0004303000843030008430300084303000808
:1000C00043030008430300084303000843030008F8
:1000D00043030008430300084303000843030008E8
:1000E00043030008430300084303000843030008D8
:1000F00043030008430300084303000843030008C8
:1001000043030008430300084303000843030008B7
:1001100043030008430300084303000843030008A7
:100120004303000843030008430300084303000897
:100130004303000843030008430300084303000887
:100140004303000843030008430300084303000877
:100150004303000843030008430300084303000867
:100160004303000843030008430300084303000857
:100170004303000843030008430300080000000095
:10018000430300084303000800F002F800F05CF8A5
:100190000AA090E8000C82448344AAF10107DA45E2
:1001A00001D100F051F8AFF2090EBAE80F0013F0D8
:1001B000010F18BFFB1A43F0010318477C21000010
:1001C0009C2100000A444FF0000C10F8013B13F092
:1001D000070408BF10F8014B1D1108BF10F8015BA0
:1001E000641E05D010F8016B641E01F8016BF9D193
:1001F00013F0080F1EBF10F8014BAD1C0C1B09D1EA
:100200006D1E58BF01F801CBFAD505E014F8016B5B
:1002100001F8016B6D1EF9D59142D6D370470000ED
:100220000023002400250026103A28BF78C1FBD8FF
:10023000520728BF30C148BF0B6070471FB502F09E
:1002400069F81FBD10B510BD00F02FF91146FFF77A
:10025000F5FF01F06AFA00F04DF903B4FFF7F2FF81
:1002600003BC00F055F900002C4B19680868B0E891
:10027000F04F80F30988BFF36F8F4FF0000080F3D9
:10028000118870470000000008480068006880F38B
:1002900008884FF0000080F3148862B661B6BFF39F
:1002A0004F8FBFF36F8F00DF00BF00BF08ED00E08E
:1002B000DFF80C00016841F470010160704700BF75
:1002C00088ED00E0EFF30980BFF36F8F134B1A68DE
:1002D0001EF0100F08BF20ED108A20E9F04F1060CB
:1002E00009B44FF0500080F31188BFF34F8FBFF374
:1002F0006F8F01F041FE4FF0000080F3118809BCC0
:1003000019680868B0E8F04F1EF0100F08BFB0EC95
:10031000108A80F30988BFF36F8F7047EC000020CC
:10032000EFF30580704700000948804709480047FF
:10033000FEE7FEE7FEE7FEE7FEE7FEE7FEE7FEE795
:10034000FEE7FEE704480549054A064B70470000F2
:100350001D16000889010008404100204047002088
:10036000404300204043002053EA020C00F0698023
:100370002DE9F04B4FF00006002B1FBFB3FA83F5B9
:1003800003FA05F424FA05F65E4012BF1643B2FAEA
:1003900082F502FA05F4C5F120051EBF22FA05FC1C
:1003A00044EA0C04203556EA044C4FEA144418BFC2
:1003B000641C4FF000084FF00009904271EB030CF1
:1003C00039D3002919BFB1FA81F701FA07F6B0FA5B
:1003D00080F700FA07F6C7F120071EBF20FA07FCD6
:1003E00046EA0C062037B6FBF4FCA7EB0507103FE6
:1003F00007F01F0BCBF120060CFA0BFB2CFA06F6CC
:1004000044BFB3460026202FA4BF5E464FF0000B2A
:100410005BEA060C08BF4FF0010B19EB0B09ABFBB5
:10042000027C48EB0608C01B06FB02CC0BFB03CC8E
:1004300071EB0C01C1E70B46024641464846BDE858
:10044000F08B13B54FF000004FF00001AFF30080C8
:10045000BDE81C4070474FF0000200B513469446BB
:100460009646203922BFA0E80C50A0E80C50B1F10C
:100470002001BFF4F7AF090728BFA0E80C5048BF20
:100480000CC05DF804EB890028BF40F8042B08BFBE
:10049000704748BF20F8022B11F0804F18BF00F8BA
:1004A000012B7047704770477047754600F02CF875
:1004B000AE4605006946534620F00700854618B051
:1004C00020B5FFF73FFFBDE820404FF000064FF09A
:1004D00000074FF000084FF0000B21F00701AC4679
:1004E000ACE8C009ACE8C009ACE8C009ACE8C00998
:1004F0008D46704710B50446AFF300802046BDE836
:100500001040FFF7AABE000000487047E0400020FE
:1005100001491820ABBEFEE7260002007047FEE747
:1005200010B58189806800F0EFF9012800D0002023
:1005300010BD70472DE9FC410446807B0027032550
:10054000012605280DD2DFE800F0030E2C414C00F7
:100550002046FFF7E5FF002803D000F0E7F920610F
:10056000A673BDE8FC812046FFF7DAFF90B100F0EA
:10057000DDF92169401A32280CD3207D022598B973
:100580002675CDE900572346802229A12B4801F08A
:100590009BFD09E02046FFF7C3FF0028E1D1A773C8
:1005A000DFE700F04FF808B1A573DAE72448DC2153
:1005B00001706821417060218170C17021790171E1
:1005C000801E0670801C00F059F8EDE72046FFF70A
:1005D000A7FF0028C5D100F0A9F920610420A0736D
:1005E000BFE72046FFF79CFFD8B900F09FF92169CB
:1005F000401A322815D321680020884700F022F8DD
:100600000028CCD0002000F08DFE4FF4FA7528466B
:1006100000F070F8012000F085FE284600F06AF82E
:10062000BDE72046FFF77CFF0028BDD199E7000019
:100630006C6564426C696E6B357300002D1C00089C
:100640000200002010B54FF48061034800F05CF90F
:10065000012800D0002010BD000C024070B5064DEE
:10066000002400BF04EB440005EBC000FFF762FF6D
:10067000641C042CF6D370BD080000202DE9F0475F
:10068000DFF86C80054698F8000000282CD0287808
:10069000002829D0002408F16809264600232A5D95
:1006A0001946484610F83170BA4211D109EBC1071A
:1006B0000020796888474FF4FA7A504600F01AF81B
:1006C000796801208847504600F014F82E5505E05F
:1006D000491CC9B20D29E5D32E553BB1641CE4B2C7
:1006E000052CDBD388F80060BDE8F0872E70FBE7AF
:1006F0000000002070B5044600F018F90546601CA3
:1007000002D004480078044400F010F9401BA042D5
:10071000FAD370BDDC0000202DE9F84FDFF8BCA152
:100720000022012503264FF00F090AF1040BAAF15C
:10073000040E00BF0B6805FA02F42340A34270D1F7
:100740000F7907F00307012F01D0022F16D1876818
:100750004FEA420806FA08FC27EA0C07D1F80CC059
:100760000CFA08FC4CEA070CC0F808C04768A7431D
:100770000C79C4F3001494403C4344600C79E44386
:10078000A4070AD0C4684FEA420C06FA0CF7BC432F
:100790008F6807FA0CF72743C7600C7904F003044D
:1007A000022C12D1D40800EB840CDCF8204057074F
:1007B000FF0E09FA07F824EA0804D1F8108008FAB5
:1007C00007F848EA0408CCF8208004684FEA420C95
:1007D00006FA0CF7BC430F7907F0030707FA0CF78A
:1007E000274307604C6814F4403F70D03C4C2768A6
:1007F00047F480472760246822F0030704F480440C
:100800000094384C07EB040CDCF8084897074FEAD3
:10081000177809FA08F7BC43334FB84202D10027D2
:1008200024E054E0314FB84201D101271EE0304F9F
:10083000B84201D1022719E02E4FB84201D1032757
:1008400014E02D4FB84201D104270FE02B4FB842DE
:1008500001D105270AE02A4FB84201D1062705E059
:10086000284FB84201D1072700E0082707FA08F708
:100870002743CCF80878DAF800405746D1F804C08E
:100880009C435FEACC2C00D51C433C60DBF8004065
:100890005F46D1F804C09C435FEA8C2C00D51C4312
:1008A0003C60DEF800407746D1F804C09C435FEA24
:1008B0008C3C00D51C433C60084F083F3C68D1F895
:1008C00004C09C435FEACC3C00D51C433C60521CF6
:1008D000102AFFF42FAFBDE8F88F0000083C01405C
:1008E0004438024000300140000002400004024051
:1008F00000080240000C02400010024000140240B8
:1009000000180240001C02400069084000D001208D
:100910007047426921EA02030A4043EA02418161C9
:1009200070470AB1816170470904FBE7014880689C
:1009300070470000DC000020024881680278114402
:1009400081607047DC0000200B4810B5016841F45D
:1009500000710160016841F480610160016841F447
:1009600080710160032000F099F80F2000F006F874
:1009700000F04AF8002010BD003C024030B50546AA
:100980001C4887B00024016841F001010160006843
:1009900006A900F00100009001A800F02BF900F07A
:1009A00049F915494000B0FBF1F11548134A491EB9
:1009B000026040F2E732C0E90324C0E90114846117
:1009C00000F032FB040012D10D4800F05BFB040084
:1009D0000DD1192000F034F8102D07D2002229463D
:1009E000192000F03BF80748056000E0012407B03B
:1009F000204630BD4438024040420F000000014014
:100A0000A8030020E00000200C4882B0016841F4F7
:100A100080410160006800F4804000900748001F9A
:100A2000016841F0805101600068002200F08050B0
:100A300000900F21901E02B000F010B84438024020
:100A4000002809DB00F01F020121914040098000CD
:100A500000F1E020C0F8001170470000F0B40E4B28
:100A60001B680C46C3F30223C3F10705042D00D90C
:100A70000425191D072901D2002300E0DB1E0126F1
:100A800006FA05F1491E214099409E40761E164007
:100A90003143F0BC00F039BE0CED00E0064900F037
:100AA000070208684FF6FF03184040EA0220034A95
:100AB00010430860704700000CED00E00000FA05EC
:100AC0002DE9F0470E46050065D0DFF81481D8F80F
:100AD0000000F7B200F00700B04207D288F80070BB
:100AE000D8F8000000F00700B04254D128683D4C0F
:100AF000810712D5400703D5206840F4E0502060FC
:100B00002878000703D5206840F460402060206802
:100B1000A96820F0F000084320602878C0072DD095
:100B2000304968680839012812D0022813D00328F8
:100B300011D00968890700292DDA216821F0030105
:100B400001432160FFF7F2FE814641F2883A0EE050
:100B500009688903EFE709688901ECE7FFF7E6FE1A
:100B6000A0EB0901514502D90320BDE8F0872068B8
:100B7000696800F00C00B0EB810FEFD1D8F80010DD
:100B8000404601F00701B14207D90770006800F044
:100B90000700B04201D00120E7E72878400705D5DB
:100BA0002068E96820F4E0500843206028780007B6
:100BB00006D52068296920F4604040EAC100206021
:100BC00000F048F82168084AC1F30311515CC8409D
:100BD0000649086006480068FFF7D0FE0020C4E719
:100BE000003C0240083802401E230008E8000020B4
:100BF000E00000200F2202600C4A136803F0030398
:100C00004360136803F0F0038360136803F4E05358
:100C1000C36012684FF4E05303EAD2020261044851
:100C2000006800F0070008607047000008380240C4
:100C3000003C02400448054900680968044AC1F3C1
:100C40004231515CC8407047E8000020083802403B
:100C50002E230008154810B5006810F00C02144847
:100C600013D01449042A0FD0082A0ED10F4C241F88
:100C70002268236802F03F025B0207D52068C0F3B8
:100C80008810A0FB010106E0084610BD2168C1F3F1
:100C90008811A1FB00010023FFF766FB2168C1F367
:100CA0000141491C4900B0FBF1F010BD0838024079
:100CB0000024F40040787D012DE9F84F04006ED047
:100CC0002078DFF84C93C007A9F104054AD009F158
:100CD00004000168C1F38101012908D00068C0F354
:100CE000810002280AD1D9F80000400206D5286800
:100CF000800337D560680028E1D033E06068B0F544
:100D0000803F10D0B0F5A02F286810D020F480309C
:100D10002860286820F4802028606068A8B1FFF768
:100D200005FE06460DE0286840F48030F4E740F404
:100D300080202860F7E700BFFFF7F8FD801B6428DC
:100D400073D828688003F7D50CE0FFF7EFFD06465F
:100D500005E000BFFFF7EAFD801B6428F0D8286893
:100D60008003F7D42078DFF8AC8280074FF0000AC8
:100D70003ED5A748001D016811F00C0F08D000688F
:100D8000C0F3810002280BD1D9F80000400207D43B
:100D90002868800716D5E068012800D112E033E109
:100DA000E068B8B10120C8F80000FFF7BFFD0646B3
:100DB00005E000BFFFF7BAFD801B0228C0D82868F5
:100DC0008007F7D52868216920F0F80040EAC100C3
:100DD00028600DE0C8F800A0FFF7A8FD064604E073
:100DE000FFF7A4FD801B02281FD828688007F7D4CE
:100DF0002078000722D5864F87486169703771B126
:100E000001210160FFF792FD064604E0FFF78EFD29
:100E1000801B022809D838688007F7D50EE0C0F893
:100E200000A0FFF783FD064605E082E0FFF77EFDA8
:100E3000801B02287DD838688007F7D420784007C7
:100E400068D5DFF8CCB100270BF13C0BDBF80000D4
:100E5000C0000BD4DBF8001041F08051CBF800103B
:100E6000DBF80000012700F0805000906B4E3068E6
:100E7000C00510D4306840F480703060FFF756FD34
:100E8000009005E0FFF752FD0099401A022850D863
:100E90003068C005F6D55E4EA0686C3601280FD0CC
:100EA0000528306810D020F001003060306820F054
:100EB00004003060A068B8B1FFF738FD00900FE083
:100EC000306840F00100F4E740F004003060F7E7DC
:100ED000FFF72CFD0099411A41F28830814266D813
:100EE00030688007F4D50EE0FFF720FD009007E0A2
:100EF000FFF71CFD0099411A41F28830814256D813
:100F000030688007F4D42FB1DBF8001021F0805155
:100F1000CBF80010A069C8B33D49091D0968C1F3A9
:100F2000810102294AD00228504607D0C8F8600043
:100F300000E03CE0FFF7FAFC04463BE04746C8F817
:100F40006000FFF7F3FC064605E000BFFFF7EEFC8C
:100F5000801B02282BD828688001F7D4D4E9070128
:100F60000843A16A2E4A490802EB0141626A41EA3C
:100F70008211084394F82C1040EA0161C9F800106E
:100F800001203866FFF7D2FC044606E03EE000BFD1
:100F9000FFF7CCFC001B022809D828688001F7D590
:100FA00034E000BFFFF7C2FC001B022802D9032077
:100FB000BDE8F88F28688001F4D427E00128F7D035
:100FC000D9F80000E26900F4800191421CD1226A44
:100FD00000F03F01914217D147F6C071626A0140AB
:100FE000B1EB821F10D1A26A4FF0FF3300F4403101
:100FF00003EB5202B1EB024F06D194F82C1000F033
:101000007060B0EB016F01D00120D1E70020CFE785
:101010000438024000004742800E47420070004002
:101020000000FFFF7047704710B5040003D094F82C
:101030003D0010B107E0012010BD002084F83C0005
:10104000204600F01EF8022084F83D00211D206893
:1010500000F0F2FA012084F8460084F83E0084F89B
:101060003F0084F8400084F8410084F8420084F88E
:10107000430084F8440084F8450084F83D000020D3
:1010800010BD704790F83D10012901D00120704734
:10109000022180F83D100168CA6842F00102CA606E
:1010A00000681149884214D0B0F1804F11D00F4927
:1010B00088420ED00E4988420BD00E49884208D093
:1010C0000D49884205D00D49884202D00C4988421A
:1010D00004D1816801F00701062903D0016841F0BD
:1010E0000101016000207047000001400004004041
:1010F00000080040000C0040000401400040014096
:101100000018004070472DE9F04104460068C668A9
:1011100005694FF00007A90713D5B10711D5F91ECE
:10112000016101202077206880698007204602D075
:10113000FFF7E8FF04E000F07EF8204600F07CF8BE
:101140002777680716D5700714D521686FF004005B
:101150000861022020772068806910F4407F2046D3
:1011600002D0FFF7CFFF04E000F065F8204600F062
:1011700063F82777280715D5300713D521686FF056
:1011800008000861042020772068C0698007204695
:1011900002D0FFF7B7FF04E000F04DF8204600F062
:1011A0004BF82777E80616D5F00614D521686FF0BE
:1011B00010000861082020772068C06910F4407F83
:1011C000204602D0FFF79EFF04E000F034F82046EE
:1011D00000F032F82777E80708D0F00706D021683A
:1011E0006FF001000861204600F028F8280608D5B5
:1011F000300606D521686FF0800008612046FFF7B1
:1012000011FF680608D5700606D521686FF040000A
:101210000861204600F01CF8A8060AD5B00608D5DB
:1012200021686FF0200008612046BDE8F041FFF71B
:10123000FABEBDE8F08170477047000000680349BE
:10124000884201D1FFF778BB7047000000000140E1
:101250007047FEE708B1012200E000224FF48061F0
:101260000148FFF75EBB00000004024008B1012204
:1012700000E0002201210148FFF753BB00100240AB
:1012800008B1012200E0002202210148FFF749BB1A
:101290000010024008B1012200E0002204210148B0
:1012A000FFF73FBB0010024008B1012200E000221E
:1012B00008210148FFF735BB0010024008B10122A8
:1012C00000E0002210210148FFF72BBB0010024074
:1012D00008B1012200E0002220210148FFF721BBD4
:1012E0000010024008B1012200E000224021014824
:1012F000FFF717BB0010024008B1012200E00022F6
:1013000080210148FFF70DBB0008024008B101220F
:1013100000E000224FF480710148FFF702BB00009B
:101320000004024008B1012200E00022012101482E
:10133000FFF7F7BA0008024008B1012200E00022DE
:101340004FF400610148FFF7ECBA000000100240C2
:1013500008B1012200E000224FF400710148FFF7BC
:10136000E0BA00000004024028B100224FF400510E
:101370000248FFF7D6BA0122F8E70000000C02404D
:1013800020B1002280210248FFF7CBBA0122F9E701
:10139000000C024028B100224FF400710248FFF710
:1013A000C0BA0122F8E700000010024020B100227C
:1013B00080210248FFF7B5BA0122F9E70010024088
:1013C0001CB505490120CDE900010023802203A1BD
:1013D000054800F079FE1CBDD000002073746172D6
:1013E000745F7461736B0000A11B00082DE9F04F5E
:1013F00087B014216846FFF72EF851480024016891
:1014000041F010010160016801F0100105910168CF
:1014100041F080010160016801F0800105910168DF
:1014200041F004010160016801F0040105910168C7
:1014300041F001010160016801F0010105910168BD
:1014400041F002010160016801F0020105910168AB
:1014500041F0080101600068DFF8E89000F0080042
:10146000059001224FF6FF214846FFF75AFADFF8B0
:10147000D8A0012281215046FFF753FADFF8CCB003
:10148000002208215846FFF74CFA4FF4E06701228A
:1014900039462F48FFF745FA4FF4025801224146DA
:1014A0002C48FFF73EFA4FF67F00012502268DE813
:1014B0006100694648460396FFF72EF981208DE8C2
:1014C0006100694650460396FFF726F90820009010
:1014D000CDE90154694658460394FFF71DF94FF4CE
:1014E00020700090CDE90154694648460394FFF707
:1014F00013F94FF4A060CDE9000469464846029410
:10150000FFF70AF90097CDE901566946104803969E
:10151000FFF702F940F24240CDE9000469460D4868
:101520000294FFF7F9F8CDF80080CDE9015469463F
:1015300008480394FFF7F0F807B0BDE8F08F00000B
:101540003038024000100240000802400000024013
:1015500000040240000C0240FEE7FEE710B55020F8
:1015600080F31188BFF34F8FBFF36F8F00F00AFE37
:1015700018B104494FF080500860002080F31188B2
:1015800010BD000004ED00E030B593B03021684696
:10159000FEF761FF14210CA8FEF75DFF1D48002532
:1015A000016841F080510160006800F080501190A6
:1015B0001948016841F4804101600068022400F488
:1015C0008040119001200390102004900094069414
:1015D0000820CDE90750A820CDE9090404200B908C
:1015E0006846FFF769FB08B172B6FEE70CA90F2049
:1015F00081E831004FF4A0500F904FF480501090CC
:1016000005210CA8FFF75CFA002801D072B6FEE7AE
:1016100013B030BD403802400070004002480168FD
:1016200041F470010160704788ED00E00148FFF768
:101630006ABD0000A8030020F0B50268274B284DC2
:10164000284E294F294C4FF0804C984209D06045D4
:1016500007D0A84205D0B04203D0B84201D0A04282
:1016600004D122F0700E4A6842EA0E0298421BD062
:10167000604519D0A84217D0B04215D0B84213D057
:10168000A04211D01A4DA8420ED01A4DA8420BD03C
:10169000194DA84208D0194DA84205D0184DA842AE
:1016A00002D0184DA84203D122F44075CA682A43DB
:1016B0004D6922F080022A438D68C5620D688562FB
:1016C000984201D0A04201D109690163016841F04B
:1016D00004010160012141610260F0BD0000014090
:1016E0000004004000080040000C004000040140DD
:1016F0000040014000440140004801400018004003
:10170000001C004000200040FEE70907090E0028E9
:1017100004DB00F1E02080F80014704700F00F00B7
:1017200000F1E02080F8141D7047FFF70DF9FFF776
:101730002BFFFFF75BFEFFF743FE00F001F8FEE72B
:1017400010B500F0DBFB002010BD00002DE9F041DA
:10175000184C0F460546E6682068001D00F08AFA1E
:1017600038B9206890F82C10012088402169814305
:101770002161681C07D137B12168BDE8F0410E48EE
:10178000091D00F0BBBA20683544B54245602168A8
:1017900005D2A06BBDE8F041091D00F097BA606B5F
:1017A000091D00F093FAA06A854200D2A562BDE847
:1017B000F0810000EC000020CC0400202DE9F04175
:1017C000054600F0A7FA2E4CA068401CA0602068D7
:1017D0002C4F10B1606940B32DE02560A06801284E
:1017E00029D1002606EB860007EB800000F060FAA6
:1017F000761C072EF6D323488C3000F059FA214886
:10180000A03000F055FA1F48B43000F051FA1D48DE
:10181000C83000F04DFA1B48DC3000F049FA194896
:101820008C3060631430A06305E02068E96AC06A08
:10183000884200D82560606A401C6062E96A012025
:10184000226988401043206101EB810007EB800092
:10185000291D00F053FA00F07DFA606900280CD0D1
:101860002068E96AC06A884207D207494FF0805071
:101870000860BFF34F8FBFF36F8FBDE8F0810000AA
:10188000EC000020F003002004ED00E010B5044659
:1018900090F8510058B101280CD002280FD05020E8
:1018A00080F31188BFF34F8FBFF36F8FFEE7206B7C
:1018B00000F064FA2046BDE8104000F05FBA10BDA9
:1018C00010484FF47051420706D0C01D0D4920F05A
:1018D0000700411AC1F570510B4A00230144C2E9C7
:1018E00000030839183A21F0070111604B600B60C2
:1018F0000B1AC0E9001393604FF000405360506131
:1019000070470000E004002040010020144E154CF8
:10191000A6F1C8074FF08058DFF84C9012E000BFE6
:1019200000F0F8F9F068C568281D00F0A3F9A06878
:10193000401EA0606068401E606000F00BFA284600
:10194000FFF7A4FF60680028EAD138680128F9D9B8
:10195000C9F80080BFF34F8FBFF36F8FF2E700002D
:10196000B8040020EC00002004ED00E02DE9F04771
:101970009A46DDE9098481466FF00303206B03EB8F
:1019800082021044089E20F00707780707D05020F5
:1019900080F31188BFF34F8FBFF36F8FFEE70025F1
:1019A00061B1002023180A5C83F834200A5C12B16C
:1019B000401C1028F6D384F8435001E084F83450DA
:1019C000072E00D30626E662C4E91165201D00F04B
:1019D0007AF904F1180000F076F92461C6F10700E5
:1019E0006462A061E56484F8505052464946384626
:1019F00000F0C0F82060B8F1000F01D0C8F8004036
:101A0000BDE8F08730B5114900E011460A6882420E
:101A1000FBD34B685C18844203D14068184448608B
:101A2000084643681C18944209D1084C183C2468A5
:101A3000A24209D052681A4442600A6812680260E1
:101A4000814200D0086030BD0460F9E74001002009
:101A50000648416B096829B1416BC968C968496882
:101A6000816270474FF0FF31FAE70000EC00002080
:101A700008484068401C4FF0500080F3118804D0A3
:101A8000BFF34F8FBFF36F8FFEE7BFF34F8FBFF3EF
:101A90006F8FFEE7480100202DE9F0410546002741
:101AA00000F062FA324E306808B9FFF709FF70693A
:101AB00005424ED1C5B3083568070ED005F00700C2
:101AC000C0F108000544680707D0502080F3118852
:101AD000BFF34F8FBFF36F8FFEE72DB37068854262
:101AE00037D82348183001460C6801E020460C46E0
:101AF0006168A94202D221680029F7D131688C427D
:101B000027D007682168016060680837411B1029E9
:101B10000FD96019420708D0502080F31188BFF315
:101B20004F8FBFF36F8FFEE713E041606560FFF7F3
:101B300069FF61687068401A7060B268904200D2B4
:101B4000B060706901430020C4E90001F068401CE6
:101B5000F06000F07DFB780707D0502080F31188FB
:101B6000BFF34F8FBFF36F8FFEE73846BDE8F081BC
:101B70002801002010B5031F4FF080741C601B1F4C
:101B800021F001011960191F044B0B6014390A6020
:101B9000091F6FF0020244380A6010BD711A000874
:101BA0001CB500F0B7F80F490220CDE90001002371
:101BB00080220DA10E4800F087FA0A490320091D72
:101BC000CDE90001002380220AA10C4800F07CFA34
:101BD0000448001F006800F03BF9BDE81C4000F01D
:101BE000B9B80000D40000207461736B31000000AC
:101BF000011C00087461736B32000000111C0008A6
:101C00004FF47A74FEF72AFD204600F0FBF8F9E75E
:101C1000054C4FF47A7508212046FEF77AFE2846D7
:101C200000F0F0F8F7E70000000002402DE9F04175
:101C3000044600F0A1FA05464FF4FA7641F28837DF
:101C400009E08847304600F0DDF821680020884729
:101C5000304600F0D7F800F08FFA401BB8422168F8
:101C60004FF00100EDD3884700202075BDE8F0411A
:101C700000F0EEB8D0E9013201699A60D0E90123A1
:101C80005A604A68824201D182684A600022026139
:101C90000868401E0860086870470000034B036036
:101CA00003F1540008608020106070475401002048
:101CB00000F108014FF0FF32C0E90112C16001617B
:101CC00000210160704700210161704730B50B6849
:101CD0005A1C02D000F1080202E0026904E0224628
:101CE000546825689D42FAD953684B6099608A60B0
:101CF000516008610168491C016030BD42684A605A
:101D000093688B6093685960916008610168491C11
:101D100001607047502080F31188BFF34F8FBFF3ED
:101D20006F8F0A494868401C486001280CD1084858
:101D3000006810F0FF0F07D0502080F31188BFF328
:101D40004F8FBFF36F8FFEE7704700004801002000
:101D500004ED00E00849486828B1401E486001D100
:101D600080F311887047502080F31188BFF34F8FA4
:101D7000BFF36F8FFEE700004801002070B5002818
:101D80002AD0164DA0F1080460686969084207D19D
:101D9000502080F31188BFF34F8FBFF36F8FFEE7A2
:101DA00022683AB1502080F31188BFF34F8FBFF300
:101DB0006F8FFEE78843606000F0D6F8606869685E
:101DC000084468602046FFF71DFE2869401C286112
:101DD000BDE8704000F03CBA70BD00002801002052
:101DE0004FF0E02000210161816105494FF47A72D2
:101DF0000968B1FBF2F1491E416107210161704799
:101E0000E800002010B5020014D00F48006B38B174
:101E1000502080F31188BFF34F8FBFF36F8FFEE721
:101E200000F0A2F800211046FFF790FC00F010FA35
:101E3000002807D105494FF080500860BFF34F8F4D
:101E4000BFF36F8F10BD0000EC00002004ED00E038
:101E500070B50546FFF75EFF254C05B92568281DBE
:101E6000FFF708FF58B9E86A224A00EB800152F8F0
:101E7000211021B901218140206988432061A86A8D
:101E800018B105F11800FFF7F5FE606A401C6062AA
:101E90002068854208D11748291DC830FFF72EFF5A
:101EA0006068401C606007E0A068401EA060284693
:101EB000FFF7ECFCFFF7CCFDFFF74CFF6069002853
:101EC00014D02068854211D1206B38B1502080F3A6
:101ED0001188BFF34F8FBFF36F8FFEE706494FF0B6
:101EE00080500860BFF34F8FBFF36F8F70BD00004D
:101EF000EC000020F003002004ED00E010B586B0F7
:101F00000024039405AA04A903A80494FFF7C6FEBD
:101F1000DDE903010094CDE9011000230EA1104872
:101F2000059A00F0FEF80F490028C86211D0502031
:101F300080F31188BFF34F8FBFF36F8F4FF0FF30E7
:101F4000886201204861CC6006B0BDE8104000F016
:101F500041B806B010BD000049444C4500000000E7
:101F60000D190008EC0000200248016B491C0163B8
:101F700070470000EC0000201448016B11B10121F2
:101F8000C16170470021C1610169B1FA81F1C1F1FC
:101F90001F0101EB81020E4951F822306BB101EBB8
:101FA000820101F108034A6852684A609A4201D1ED
:101FB00052684A60D16801607047502080F31188F0
:101FC000BFF34F8FBFF36F8FFEE70000EC000020E0
:101FD000F00300201CB537480168374A914207D109
:101FE000502080F31188BFF34F8FBFF36F8FFEE750
:101FF00000683149491E884207D1502080F311887A
:10200000BFF34F8FBFF36F8FFEE72C490878019025
:10201000FF20087008788DF800009DF800009DF8FA
:10202000002000F0F000904207D0502080F311888B
:10203000BFF34F8FBFF36F8FFEE79DF80000204C7A
:1020400000F0500020700720A06005E09DF80020FF
:1020500052008DF80020401E9DF800201206F5D495
:10206000A060032807D0502080F31188BFF34F8F62
:10207000BFF36F8FFEE74FF44070A06001980870C7
:102080000C482030016841F470010160016841F0A2
:1020900070410160FFF7A4FE00206060FEF708F9C0
:1020A0000848016841F040410160FEF7EDF800206A
:1020B0001CBD000000ED00E071C20F4100E400E033
:1020C0004801002034EF00E02DE9FF5F8346DDE9A1
:1020D0000E87994616468A469000FFF7DDFC0500FC
:1020E0001CD05420FFF7D8FC040014D00020256336
:1020F00084F85100CDE90240CDE900874B463246D5
:1021000051465846FFF732FC2046FFF757FB0120A7
:1021100004B0BDE8F09F2846FFF730FE4FF0FF30D7
:10212000F6E7F0B585B0DDE90B640A9DA6B1DCB138
:10213000542700972663022684F85160002604AFD6
:10214000CDE90246CDE90057FFF710FC2046FFF726
:1021500035FB049805B0F0BD502080F31188BFF323
:102160004F8FBFF36F8FFEE7502080F31188BFF3CE
:102170004F8FBFF36F8FFEE70148C06870470000C4
:10218000EC0000202DE9F0412F4C0026206B28B1F7
:10219000A069401CA0613046BDE8F081E5686D1C77
:1021A000E56013D1606B006838B1502080F311886E
:1021B000BFF34F8FBFF36F8FFEE7606BA16B61635F
:1021C000A063206A401C2062FFF742FCA06ADFF88F
:1021D0007C80854209D3606B0068A0B1606BC068E9
:1021E000C7687868854211D2A0622068C06A00EB97
:1021F000800158F82100012800D90126E069002853
:10220000C9D00126C7E74FF0FF30EDE7381DFFF7D3
:1022100031FDB86A18B107F11800FFF72BFDF96A14
:102220000120226988401043206101EB810108EB05
:102230008100391DFFF762FDF86A2168C96A88428A
:10224000C9D30126C7E70000EC000020F0030020FE
:102250002DE9F0472C4D00242746286B38B1FFF7B5
:1022600059FD286B401E2863286B40B146E0502082
:1022700080F31188BFF34F8FBFF36F8FFEE7A9681C
:10228000224E0120D1B3A6F1B40980463068E8B1EE
:10229000F068C46804F11800FFF7ECFC201DFFF79C
:1022A000E9FCE06A2A6908FA00F11143296100EBB0
:1022B000800109EB8100211DFFF720FDE06A2968FC
:1022C000C96A8842E2D3C5F81C80DFE70CB1FFF78A
:1022D000BFFBAC6944B14646FFF754FF00B1EE6165
:1022E000641EF9D10020A861E86938B108490127C6
:1022F00038070860BFF34F8FBFF36F8FFFF72AFDDA
:102300003846BDE8F0870000EC000020A40400205F
:1023100004ED00E04FF04070E1EE100A704700005D
:102320000000000000000102030406070809000085
:1023300000000102030400005823000800000020F0
:1023400054010000C4010008C42300085401002007
:10235000EC4500002002000881136913430861B5B1
:102360000C0240406A811814100240A204AA951879
:10237000A2019AAD48B20232604B55121C1A6D0888
:102380002A625C19082A634C190832641AA90832B7
:10239000651ABD0832661AD10832671AE508326834
:1023A0001AF90832691A0D64326A1A5108326E1A23
:1023B000390832DC1A2508C129978210036124F4F8
:0423C0001AAA014113
:040000050800018965
:00000001FF
